:100000000C9434000C9446000C9446000C9446006A
:100010000C9446000C9446000C9446000C94460048
:100020000C9446000C9446000C9446000C94460038
:100030000C9446000C9446000C9446000C94460028
:100040000C946D000C9446000C9446000C944600F1
:100050000C9446000C9446000C9446000C94460008
:100060000C9446000C94460011241FBECFEFD8E03C
:10007000DEBFCDBF21E0A0E0B1E001C01D92AA30FB
:10008000B207E1F70E94B7000C945A010C940000EB
:100090003FB7F8948091060190910701A091080163
:1000A000B091090126B5A89B05C02F3F19F0019614
:1000B000A11DB11D3FBFBA2FA92F982F8827BC01C2
:1000C000CD01620F711D811D911D42E0660F771FEA
:1000D000881F991F4A95D1F708951F920F920FB666
:1000E0000F9211242F933F938F939F93AF93BF93BE
:1000F0008091020190910301A0910401B09105014A
:100100003091010123E0230F2D3758F50196A11DF1
:10011000B11D209301018093020190930301A093EC
:100120000401B09305018091060190910701A0910F
:100130000801B09109010196A11DB11D809306012E
:1001400090930701A0930801B0930901BF91AF916B
:100150009F918F913F912F910F900FBE0F901F9005
:10016000189526E8230F0296A11DB11DD2CF7894D1
:1001700084B5826084BD84B5816084BD85B58260AC
:1001800085BD85B5816085BD80916E00816080935D
:100190006E001092810080918100826080938100C6
:1001A00080918100816080938100809180008160D6
:1001B000809380008091B10084608093B100809131
:1001C000B00081608093B00080917A008460809359
:1001D0007A0080917A00826080937A0080917A0020
:1001E000816080937A0080917A00806880937A00A1
:1001F0001092C1008AB18F608AB984B18F6084B9CE
:10020000C0E0D0E09BB1809100018F70907F892B7E
:100210008BB98091000190E045B19C0153E0220F21
:10022000331F5A95E1F72870BC01660F771F647081
:10023000262BBC01759567956270262B83FB88275A
:1002400080F9822B407F842B85B90E9448004B01A6
:100250005C01A4EFCA2EDD24D394E12CF12C0E9482
:100260004800681979098A099B09683E734081052D
:100270009105A8F321E0C21AD108E108F10888EE3F
:10028000880E83E0981EA11CB11CC114D104E104A6
:10029000F10429F7809100018F5F8A3040F4809348
:1002A0000001209709F4AECF0E940000ABCF10925E
:0802B0000001F7CFF894FFCF25
:00000001FF
